:100000000C942A000C9447000C9447000C94470071
:100010000C9447000C9447000C9447000C94470044
:100020000C9447000C9447000C9447000C94470034
:100030000C9447000C947E060C9447000C944700E7
:100040000C9447000C9447000C9447000C94470014
:100050000C94470011241FBECFE5D8E0DEBFCDBF12
:1000600011E0A0E6B0E0EAE1F9E102C005900D92EE
:10007000A03EB107D9F711E0A0EEB1E001C01D929A
:10008000A23EB107E1F70E940C0A0C948B0C0C9471
:100090000000EF92FF920F931F937B018C0120E0F1
:1000A00030E040E05FE40E94190388238CF0C8012F
:1000B000B70120E030E040E05FE40E94C1010E940F
:1000C00079039B01AC01205030404040504806C0AD
:1000D000C801B7010E9479039B01AC01B901CA01B3
:1000E0001F910F91FF90EF900895A0E0B0E0EBE733
:1000F000F0E00C94540CDC012B01FA019C9192303D
:1001000008F439C1EB018881823008F433C194309E
:1001100069F4843009F02FC111969C91119789815F
:10012000981709F428C1A8EDB0E025C1843009F47E
:1001300021C18230A9F4923009F01DC19A01AD01AC
:1001400088E0EA010990AE01E90109929E0181501F
:10015000C1F7E201898111969C918923818308C1AD
:10016000923009F407C112962D903C901397EB0141
:100170008A819B811496AD90BD90CD90DC901797AD
:10018000EC80FD800E811F819101281B390BB90184
:1001900037FF04C066277727621B730B6032710537
:1001A0000CF061C0121613066CF537014801062EDB
:1001B00004C096948794779467940A94D2F721E0C8
:1001C00030E040E050E004C0220F331F441F551FB1
:1001D0006A95D2F721503040404050402E213F21B7
:1001E00040235123211531054105510521F021E01E
:1001F00030E040E050E079018A01E628F72808293C
:1002000019293CC0232BD1F1260E371E350146019A
:10021000062E04C096948794779467940A94D2F734
:1002200021E030E040E050E004C0220F331F441FC3
:10023000551F6A95D2F721503040404050402A2146
:100240003B214C215D21211531054105510521F04E
:1002500021E030E040E050E059016A01A628B728CB
:10026000C828D9280BC0821593052CF01C01AA249C
:10027000BB24650103C0EE24FF24870111969C91E5
:10028000D20111968C91981709F445C0992339F041
:10029000A80197012A193B094C095D0906C0A6016E
:1002A00095012E193F09400B510B57FD08C01182D3
:1002B0003382228224833583468357831DC081E0A5
:1002C00081833382228288279927DC01821B930B4A
:1002D000A40BB50B84839583A683B7830DC0220F2F
:1002E000331F441F551F24833583468357838281E0
:1002F000938101979383828324813581468157813D
:10030000DA01C9010197A109B1098F5F9F4FAF4F72
:10031000BF4328F30BC0918333822282EA0CFB1C7B
:100320000C1D1D1DE482F5820683178383E0808304
:10033000248135814681578157FF1AC0C901AA27F8
:1003400097FDA095BA2F81709070A070B0705695EF
:10035000479537952795822B932BA42BB52B848318
:100360009583A683B7838281938101969383828349
:10037000DF0101C0D201CD01CDB7DEB7E2E10C94BF
:10038000700CA0E2B0E0E7ECF1E00C94600C698343
:100390007A838B839C832D833E834F835887E9E048
:1003A000EE2EF12CEC0EFD1ECE010196B7010E943F
:1003B0006A058E010F5E1F4FCE010596B8010E949F
:1003C0006A058A8991E089278A8BC701B801AE0145
:1003D000475E5F4F0E9475000E949504A096E6E07C
:1003E0000C947C0CA0E2B0E0E8EFF1E00C94600C1F
:1003F00069837A838B839C832D833E834F835887C5
:10040000F9E0EF2EF12CEC0EFD1ECE010196B701A6
:100410000E946A058E010F5E1F4FCE010596B8013E
:100420000E946A05C701B801AE01475E5F4F0E9496
:1004300075000E949504A096E6E00C947C0CA0E266
:10044000B0E0E5E2F2E00C94540C69837A838B838C
:100450009C832D833E834F835887CE010196BE0136
:10046000675F7F4F0E946A05CE010596BE016F5EF1
:100470007F4F0E946A059985923088F08989823081
:10048000C8F0943019F4823051F404C0843029F457
:10049000923081F488ED90E0C6C0923049F420E0BB
:1004A0009A858A89981321E02A87CE010996BBC0D4
:1004B000823049F420E09A858A89981321E02A8BBA
:1004C000CE014196B0C02D843E844F8458886D88FB
:1004D0007E888F88988CEE24FF248701AA24BB2471
:1004E000650140E050E060E070E0E0E0F0E0C10174
:1004F00081709070892BE9F0E60CF71C081D191D1E
:100500009A01AB012A0D3B1D4C1D5D1D80E090E062
:10051000A0E0B0E0E614F7040805190520F481E036
:1005200090E0A0E0B0E0BA01A901480F591F6A1F8E
:100530007B1FAA0CBB1CCC1CDD1C97FE08C081E0F5
:1005400090E0A0E0B0E0A82AB92ACA2ADB2A3196B6
:10055000E032F10549F0660C771C881C991C569412
:10056000479437942794C3CFFA85EA892B893C892D
:100570008B859C85280F391F2E5F3F4F17C0CA01FE
:1005800081709070892B61F016950795F794E79428
:1005900080E090E0A0E0B0E8E82AF92A0A2B1B2BC3
:1005A00076956795579547952F5F3F4F77FDE7CF36
:1005B0000CC0440F551F661F771F17FD4160EE0CDE
:1005C000FF1C001F111F21503040403090E05907A0
:1005D00090E0690790E4790760F32B8F3C8FDB0193
:1005E000CA018F779070A070B07080349105A1051A
:1005F000B10561F447FD0AC0E114F10401051105DC
:1006000029F0405C5F4F6F4F7F4F40781A8EFE1786
:1006100011F081E08A8F4D8F5E8F6F8F78A383E01A
:10062000898FCE0149960E949504A096E2E10C9430
:10063000700CA8E1B0E0EFE1F3E00C94600C69838A
:100640007A838B839C832D833E834F83588789E0F5
:10065000E82EF12CEC0EFD1ECE010196B7010E9492
:100660006A058E010F5E1F4FCE010596B8010E94EC
:100670006A058985823040F08989823028F0C70177
:10068000B8010E94E20501C08FEF6896E6E00C9485
:100690007C0CA8E1B0E0EFE4F3E00C94600C69831B
:1006A0007A838B839C832D833E834F83588789E095
:1006B000E82EF12CEC0EFD1ECE010196B7010E9432
:1006C0006A058E010F5E1F4FCE010596B8010E948C
:1006D0006A058985823040F08989823028F0C70117
:1006E000B8010E94E20501C081E06896E6E00C9442
:1006F0007C0CACE0B0E0EFE7F3E00C94640C6983B1
:100700007A838B839C83CE010196BE016B5F7F4F02
:100710000E946A058D81823061F1823050F184300F
:1007200021F48E81882351F12EC02F81388537FD29
:1007300020C06E812F3131051CF06623F9F023C0F3
:100740008EE190E0821B930B29853A854B855C8571
:1007500004C056954795379527958A95D2F7662315
:10076000B1F050954095309521953F4F4F4F5F4FD9
:100770000EC020E030E040E050E009C02FEF3FEF36
:100780004FEF5FE704C020E030E040E050E8B901FF
:10079000CA012C96E2E00C94800CA8E0B0E0E3EDF6
:1007A000F3E00C945C0C7B018C01611571058105F3
:1007B000910519F482E0898360C083E089838EE12A
:1007C000C82ED12CDC82CB82ED82FE820F8318876B
:1007D000C801B7010E944604FC013197F7FF3BC0F6
:1007E000222733272E1B3F0B57016801022E04C01E
:1007F000D694C794B794A7940A94D2F740E050E0F7
:1008000060E070E081E090E0A0E0B0E004C0880F1C
:10081000991FAA1FBB1F2A95D2F70197A109B109F9
:100820008E219F21A023B1230097A105B10521F0BE
:1008300041E050E060E070E04A295B296C297D29A5
:100840004D835E836F8378878EE190E08E1B9F0BD4
:100850009C838B8312C0309781F00E2E04C0EE0C67
:10086000FF1C001F111F0A94D2F7ED82FE820F8336
:100870001887CE1ADF0ADC82CB821A82CE0101965B
:100880000E9495042896EAE00C94780CEF92FF926F
:100890000F931F937B018C0180E0E81680E0F8063F
:1008A00081E0080780E0180788F48FEFE816F1046C
:1008B0000105110531F028F088E090E0A0E0B0E0FB
:1008C00017C080E090E0A0E0B0E012C080E0E81641
:1008D00080E0F80680E0080781E0180728F088E14A
:1008E00090E0A0E0B0E004C080E190E0A0E0B0E0E3
:1008F00020E230E040E050E0281B390B4A0B5B0B54
:1009000004C016950795F794E7948A95D2F7F701F6
:10091000E052FF4F8081281B310941095109C9016B
:100920001F910F91FF90EF900895DF92EF92FF9249
:100930000F931F93FC01E480F58006811781D1801D
:100940008081823048F480E090E0A0E1B0E0E82AC5
:10095000F92A0A2B1B2BA5C0843009F49FC08230D2
:1009600021F4EE24FF24870105C0E114F104010500
:10097000110519F4E0E0F0E096C0628173819FEF09
:10098000623879070CF05BC022E83FEF261B370B7B
:100990002A3131052CF020E030E040E050E02AC060
:1009A000B801A701022E04C0769567955795479523
:1009B0000A94D2F781E090E0A0E0B0E004C0880F94
:1009C000991FAA1FBB1F2A95D2F70197A109B10948
:1009D0008E219F21A023B1230097A105B10521F00D
:1009E00081E090E0A0E0B0E09A01AB01282B392B28
:1009F0004A2B5B2BDA01C9018F779070A070B07021
:100A000080349105A105B10539F427FF09C0205CA8
:100A10003F4F4F4F5F4F04C0215C3F4F4F4F5F4FE1
:100A2000E0E0F0E02030A0E03A07A0E04A07A0E4D0
:100A30005A0710F0E1E0F0E079018A0127C0603840
:100A4000710564F5FB01E158FF4FD801C7018F77AD
:100A50009070A070B07080349105A105B10539F493
:100A6000E7FE0DC080E490E0A0E0B0E004C08FE3BA
:100A700090E0A0E0B0E0E80EF91E0A1F1B1F17FF70
:100A800005C016950795F794E794319687E016957B
:100A90000795F794E7948A95D1F705C0EE24FF24D3
:100AA0008701EFEFF0E06E2F679566276795902F2F
:100AB0009F77D794DD24D7948E2F8695492F462B88
:100AC000582F5D29B701CA011F910F91FF90EF9038
:100AD000DF900895FC01DB01408151812281622F6A
:100AE0006F7770E0221F2227221F9381892F880FA2
:100AF000822B282F30E0991F9927991F11969C93DC
:100B0000119721153105A9F54115510561057105AB
:100B100011F482E037C082E89FEF13969C938E9386
:100B200012979A01AB0167E0220F331F441F551F34
:100B30006A95D1F783E08C930DC0220F331F441FB9
:100B4000551F12968D919C911397019713969C9324
:100B50008E931297203080E0380780E0480780E4C9
:100B6000580758F314962D933D934D935C93179724
:100B700008952F3F310579F441155105610571053F
:100B800019F484E08C93089564FF03C081E08C9392
:100B900012C01C9210C02F57304013963C932E93D6
:100BA000129783E08C9387E0440F551F661F771FD1
:100BB0008A95D1F7706414964D935D936D937C93F1
:100BC000179708951F93DC01FB019C91923008F464
:100BD00047C08081823008F443C0943051F41196AC
:100BE0001C91843099F58181682F70E0611B710937
:100BF0003FC0843021F0923031F48230B9F18181EC
:100C0000882389F12DC011961C9111978230F1F043
:100C100081811817D9F412962D913C9113978281F6
:100C200093818217930794F028173907BCF0149624
:100C30008D919D910D90BC91A02D2481358146818F
:100C40005781281739074A075B0718F4112341F029
:100C50000AC082179307A407B50740F4112319F0BF
:100C600061E070E005C06FEF7FEF02C060E070E010
:100C7000CB011F910895579856985598549A539AB6
:100C800086E880BD529883E389B9089508955D9BF5
:100C9000FECF8CB90895FC015F9BFECF8CB18083A1
:100CA00008958CB10895FC0104C05D9BFECF8CB902
:100CB000319680818823C9F70895CF93DF93FC0193
:100CC000DC0120E030E00BC0ED015F9BFECF8CB17A
:100CD0008D938A3011F4188209C02F5F3F4F261779
:100CE000370790F3E60FF71F31971082DF91CF910E
:100CF00008959093E1018093E00108951F920F926F
:100D00000FB60F9211242F933F934F935F936F93DE
:100D10007F938F939F93AF93BF93EF93FF93E09154
:100D2000E001F091E101309711F08CB10995FF914C
:100D3000EF91BF91AF919F918F917F916F915F9153
:100D40004F913F912F910F900FBE0F901F901895CC
:100D50000F931F93182F82E060E041E00E94080982
:100D600082E061E040E00E94080980E0612F0E947B
:100D7000C40982E062E041E00E94080900ED17E04A
:100D8000C8010197F1F782E062E040E00E940809A3
:100D9000C8010197F1F71F910F9108955F926F922B
:100DA0007F928F929F92AF92BF92CF92DF92EF92FB
:100DB000FF920F931F935B016C0197FF0BC08DE2B5
:100DC0000E94A806D094C094B094A094A11CB11C19
:100DD000C11CD11C662477244301552426C0C401BC
:100DE000B3012AE030E040E050E00E94F80B7B01C4
:100DF0008C01C601B5010E94390C3B014C016E0CFF
:100E00007F1C801E911E611471048104910409F4F9
:100E10005394C601B5012AE030E040E050E00E9462
:100E2000390CC901DA015C016D01A114B104C104DE
:100E3000D104A9F618C0C401B3012AE030E040E0B3
:100E400050E00E94170C862F805D0E94A806C40106
:100E5000B3012AE030E040E050E00E94170CC901E5
:100E6000DA013C014D01611471048104910419F708
:100E700010E004C080E30E94A8061F5F1515D0F3A0
:100E80001F910F91FF90EF90DF90CF90BF90AF90A8
:100E90009F908F907F906F905F900895EF92FF9258
:100EA0000F931F937B018C010E9479030E94CE0651
:100EB0008EE20E94A806C801B70120E030E040E0C1
:100EC00050E00E944903882324F417FB109517F97A
:100ED0001095C801B7010E9449000E94CD039B01F3
:100EE000AC01C801B7010E94C10120E030E040E43C
:100EF00051E40E941F020E9449007B018C01611590
:100F000071058105910571F02AE030E040E050E084
:100F10000E94170C611571058105910519F4EE24E5
:100F2000FF248701C801B7010E94CE061F910F91CF
:100F3000FF90EF9008951F93CF93DF93EC0110E0A3
:100F400003C00E94A8061F5FFE01E10FF11D808112
:100F50008823B9F7DF91CF911F9108950F931F93C5
:100F6000182F82E060E040E00E94080982E061E022
:100F700040E00E94080980E0612F0E94C40982E0DD
:100F800062E041E00E94080900ED17E0C801019706
:100F9000F1F782E062E040E00E940809C801019791
:100FA000F1F71F910F910895882319F0813051F4C2
:100FB00005C0862F80580E94AE070895862F805462
:100FC0000E94AE0708950F931F93CF93DF938C0178
:100FD0006830B0F4660F660F660F862F805C0E9443
:100FE000AE07C0E0D0E0F801EC0FFD1F80810E9449
:100FF000A8062196C830D105B1F780E80E94AE0757
:10100000DF91CF911F910F9108950F931F9382E06D
:1010100060E041E00E948F0882E061E041E00E94D0
:101020008F0882E062E041E00E948F0880E06FEF6D
:101030000E94B10984EF91E028EC30E0F90131978A
:10104000F1F70197D9F788E30E94AE0700ED17E0AA
:10105000C8010197F1F78EE00E94AE07C801019721
:10106000F1F781E00E94AE0780EA9FE00197F1F777
:1010700086E00E94AE0780E197E20197F1F71F91A9
:101080000F910895DF92EF92FF920F931F93CF93EA
:10109000DF93DD24FF24F394C0E2DEE483E0E82E56
:1010A000EF0C81E06E2D40E00E9408090F2D10E04A
:1010B00081E0612F0E948109882309F4D02E81E00C
:1010C000612F0E9481098823D1F3CE010197F1F7A6
:1010D0001F5F0C5F143061F781E06E2D41E00E94CC
:1010E0000809F39485E0F816C9F68D2DDF91CF91AC
:1010F0001F910F91FF90EF90DF90089581E060EFD6
:101100000E94B10981E06FEF0E94C40908958FB772
:1011100080688FBF08958FB78F778FBF0895843011
:1011200008F075C0683008F072C04130B1F5813008
:1011300099F0813030F08230D1F0833009F067C00F
:1011400021C02AB381E090E002C0880F991F6A9500
:10115000E2F7282B2ABB089527B381E090E002C074
:10116000880F991F6A95E2F7282B27BB089524B3AF
:1011700081E090E002C0880F991F6A95E2F7282B62
:1011800024BB089521B381E090E002C0880F991F2D
:101190006A95E2F7282B21BB08954423C1F58130DD
:1011A00099F0813028F08230D9F0833081F524C065
:1011B0002AB381E090E002C0880F991F6A95E2F798
:1011C000809582238ABB089527B381E090E002C016
:1011D000880F991F6A95E2F78095822387BB08954F
:1011E00024B381E090E002C0880F991F6A95E2F76E
:1011F0008095822384BB089521B381E090E002C0F2
:10120000880F991F6A95E2F78095822381BB089524
:10121000843008F075C0683008F072C04130B1F514
:10122000813099F0813030F08230D1F0833009F094
:1012300067C021C02BB381E090E002C0880F991FE6
:101240006A95E2F7282B2BBB089528B381E090E044
:1012500002C0880F991F6A95E2F7282B28BB0895D2
:1012600025B381E090E002C0880F991F6A95E2F7EC
:10127000282B25BB089522B381E090E002C0880F9F
:10128000991F6A95E2F7282B22BB08954423C1F5E4
:10129000813099F0813028F08230D9F0833081F5A7
:1012A00024C02BB381E090E002C0880F991F6A959B
:1012B000E2F7809582238BBB089528B381E090E00C
:1012C00002C0880F991F6A95E2F78095822388BB38
:1012D000089525B381E090E002C0880F991F6A95B8
:1012E000E2F78095822385BB089522B381E090E0E8
:1012F00002C0880F991F6A95E2F78095822382BB0E
:1013000008958430D8F46830C8F4813051F08130C9
:1013100030F0823041F0833041F080E0089589B3AD
:1013200005C086B303C083B301C080B390E002C0A0
:10133000959587956A95E2F7817008958FEF0895E6
:101340000F931F93182F062F0E94810940E08823D6
:1013500009F441E0812F602F0E9408091F910F912D
:101360000895843080F4813049F0813028F0823053
:1013700039F0833041F406C06ABB089567BB089515
:1013800064BB089561BB0895843080F4813049F0D6
:10139000813028F0823039F0833041F406C06BBBD5
:1013A000089568BB089565BB089562BB08958430B5
:1013B00088F4813049F0813028F0823039F0833070
:1013C00049F406C089B3089586B3089583B3089598
:1013D00080B3089580E0089520E030E0FC01E20F42
:1013E000F31F10822F5F3F4F2A303105B9F7089560
:1013F00081E00E94AE0780E060E00E94D40780E6B2
:1014000090E00E949B0781E061E00E94D40780E7A2
:1014100090E00E949B0708952F923F925F926F92F7
:101420007F928F929F92AF92BF92CF92DF92EF9274
:10143000FF920F931F93DF93CF93CDB7DEB76697DD
:101440000FB6F894DEBF0FBECDBF1AE0CE010196F5
:101450009E8B8D8BFC01812F11928A95E9F70E945A
:101460003B060E947E080E9405082BE0622E712C2C
:101470006C0E7D1EF30111921A95E9F70E94F8098E
:10148000CC24DD24552411E0430195E1292E312C93
:101490002C0E3D1E88ECA82EB12C01C0DD2411308D
:1014A000D1F4F4011192E215F305E1F77E010894FD
:1014B000E11CF11C8701F80111928F01E815F90573
:1014C000D1F7C7010E944B060894E11CF11CE016FD
:1014D000F106B9F710E00E944208F82E8823F9F2CD
:1014E000F0E18F17B1F088E08F15C8F2CC2019F425
:1014F00081E00E94AE0799E09D1540F0F401ED0DEA
:10150000F11DF0828AE20E94A806D394CC24C394F1
:10151000C6CF81E00E94AE0780E060E00E94D40761
:1015200020E030E0E1E0F0E0EC0FFD1FE20FF31F00
:10153000D401A20FB31F90818C91981711F080E015
:1015400006C02F5F3F4F2A30310561F781E0F3017C
:101550001192E215F305E1F7813009F0EAC08EE758
:1015600090E00E949B0780ED97E0F5013197F1F73D
:101570000197D9F780ED97E0F5013197F1F70197E1
:10158000D9F780ED97E0F5013197F1F70197D9F799
:1015900080ED97E0F5013197F1F70197D9F780EDEC
:1015A00097E0F5013197F1F70197D9F780ED97E0D2
:1015B000F5013197F1F70197D9F780ED97E0F50143
:1015C0003197F1F70197D9F781E00E94AE078FE8D4
:1015D00090E00E949B0781E060E00E94D4078CE9C4
:1015E00090E00E949B079FC00E944208F82EE1E015
:1015F0008E1709F069C08BE00E94470680ED97E0E6
:10160000F5013197F1F70197D9F780ED97E0F501F2
:101610003197F1F70197D9F780ED97E0F501319710
:10162000F1F70197D9F780ED97E0F5013197F1F7E0
:101630000197D9F780ED97E0F5013197F1F7019720
:10164000D9F780ED97E0F5013197F1F70197D9F7D8
:1016500080ED97E0F5013197F1F70197D9F780ED2B
:1016600097E0F5013197F1F70197D9F780ED97E011
:10167000F5013197F1F70197D9F780ED97E0F50182
:101680003197F1F70197D9F780ED97E0F5013197A0
:10169000F1F70197D9F780ED97E0F5013197F1F770
:1016A0000197D9F780ED97E0F5013197F1F70197B0
:1016B000D9F780ED97E0F5013197F1F70197D9F768
:1016C0000E94F809CC242FC0F2E08F1761F58CE05E
:1016D0000E94470681E00E94AE0710E00E94420887
:1016E0008823E1F3803169F08930C0F71A30B0F710
:1016F000F401E10FF11D80838AE20E94A8061F5FBA
:10170000EDCF8CE00E9447068301F80181918F01A3
:101710000E94470602151305C1F7F3011192E21565
:10172000F305E1F760C0FA94F1E0FF1508F45CCF2F
:10173000B5CE82E0581609F03EC08BEA90E00E94D8
:101740009B078AE00E94470680ED97E0F5013197FC
:10175000F1F70197D9F780ED97E0F5013197F1F7AF
:101760000197D9F780ED97E0F5013197F1F70197EF
:10177000D9F780ED97E0F5013197F1F70197D9F7A7
:1017800080ED97E0F5013197F1F70197D9F780EDFA
:1017900097E0F5013197F1F70197D9F780ED97E0E0
:1017A000F5013197F1F70197D9F70E94F809CC2498
:1017B000DD24552474CE8EEB90E00E949B0781E0DF
:1017C00060E00E94D4078DEC90E00E949B0780EDC2
:1017D00097E0F5013197F1F70197D9F7539481E03C
:1017E0000E94AE075BCE0E94F809CC2411E09BCF8B
:1017F000629FD001739FF001829FE00DF11D649FF5
:10180000E00DF11D929FF00D839FF00D749FF00D80
:10181000659FF00D9927729FB00DE11DF91F639F21
:10182000B00DE11DF91FBD01CF0111240895A1E202
:101830001A2EAA1BBB1BFD010DC0AA1FBB1FEE1F4A
:10184000FF1FA217B307E407F50720F0A21BB30B95
:10185000E40BF50B661F771F881F991F1A9469F711
:1018600060957095809590959B01AC01BD01CF016D
:10187000089597FB092E05260ED057FD04D0D7DF1B
:101880000AD0001C38F450954095309521953F4F73
:101890004F4F5F4F0895F6F790958095709561953D
:1018A0007F4F8F4F9F4F08952F923F924F925F929D
:1018B0006F927F928F929F92AF92BF92CF92DF9260
:1018C000EF92FF920F931F93CF93DF93CDB7DEB7C5
:1018D000CA1BDB0B0FB6F894DEBF0FBECDBF099459
:1018E0002A88398848885F846E847D848C849B84B0
:1018F000AA84B984C884DF80EE80FD800C811B81BE
:10190000AA81B981CE0FD11D0FB6F894DEBF0FBEEC
:0A191000CDBFED010895F894FFCF5C
:10191A00456E74657220596F757220506173730039
:10192A006D617820313020646967697473004C6F87
:10193A0067696E2053756363656564656421003168
:10194A002D204F70656E20446F6F7200322D204338
:10195A0068616E67652050617373004C6F67696ECA
:10196A00204661696C656421212121212100577279
:10197A006F6E672050617373776F72640054727967
:10198A0020616761696E210000000000000000000C
:10199A00000102020303030304040404040404040C
:1019AA0005050505050505050505050505050505DD
:1019BA0006060606060606060606060606060606BD
:1019CA0006060606060606060606060606060606AD
:1019DA00070707070707070707070707070707078D
:1019EA00070707070707070707070707070707077D
:1019FA00070707070707070707070707070707076D
:101A0A00070707070707070707070707070707075C
:101A1A00080808080808080808080808080808083C
:101A2A00080808080808080808080808080808082C
:101A3A00080808080808080808080808080808081C
:101A4A00080808080808080808080808080808080C
:101A5A0008080808080808080808080808080808FC
:101A6A0008080808080808080808080808080808EC
:101A7A0008080808080808080808080808080808DC
:101A8A0008080808080808080808080808080808CC
:00000001FF
