:100000000C942A000C943C000C943C000C943C0092
:100010000C9443020C946F020C943C000C943C0032
:100020000C943C000C943C000C94EB010C941702D3
:100030000C943C000C9481000C943C000C943C000B
:100040000C943C000C943C000C943C000C943C0040
:100050000C943C0011241FBECFE5D8E0DEBFCDBF1D
:1000600010E0A0E6B0E001C01D92A837B107E1F7AB
:100070000E945C040C94A7050C940000579A5698B3
:100080005598549A539A86E880BD529883E389B96B
:10009000089508955D9BFECF8CB90895FC015F9B88
:1000A000FECF8CB1808308958CB10895FC0104C00B
:1000B0005D9BFECF8CB9319680818823C9F7089566
:1000C000CF93DF93FC01DC0120E030E00BC0ED01B9
:1000D0005F9BFECF8CB18D938A3011F4188209C0DA
:1000E0002F5F3F4F2617370790F3E60FF71F319723
:1000F0001082DF91CF91089590936100809360000A
:1001000008951F920F920FB60F9211242F933F93D1
:100110004F935F936F937F938F939F93AF93BF930F
:10012000EF93FF93E0916000F0916100309711F040
:100130008CB10995FF91EF91BF91AF919F918F91F4
:100140007F916F915F914F913F912F910F900FBED3
:100150000F901F9018958AE080B981B1887F81B98E
:1001600086B78E7F86BF86B7846086BF80E282B9FD
:10017000089584EA86BF06B607FEFDCF81B1887F69
:100180000895880F862B83B984E886BF86B78F7D54
:1001900086BF06B607FEFDCF81B1887F089583B97B
:1001A00084E886BF06B607FEFDCF81B1887F08953B
:1001B000FC01613011F484EC04C086B78F7B86BFEC
:1001C00084E886BF06B607FEFDCF83B1808381B188
:1001D000887F089584E986BF81B1887F089583B7B9
:1001E0008F7783BF83B7806483BF83B7886083BF03
:1001F00083B78F7E83BF83B7806283BF89B78D7FCC
:1002000089BF89B78E7F89BF83B7887F83BF85B554
:100210008F7785BD85B58F7B85BD85B5877F85BD8E
:1002200085B58F7E85BD85B58F7D85BD89B78F7777
:1002300089BF89B78F7B89BF85B5887F85BD8FB51D
:10024000877F8FBD8FB58B7F8FBD8FB58F7B8FBD28
:100250008FB580688FBD8EB580618EBD8EB588608C
:100260008EBD8FB582608FBD8FB58E7F8FBD8EB5F1
:100270008F778EBD8EB58F7B8EBD89B78F7D89BF01
:1002800089B78B7F89BF89B78F7E89BF89B7877F01
:1002900089BF0895813079F0813018F0823079F487
:1002A00005C083B7887F826083BF089585B5887F46
:1002B000826085BD08958EB5887F83608EBD089568
:1002C000813069F0813018F0823061F404C083B766
:1002D000887F83BF089585B5887F85BD08958EB5D5
:1002E000887F8EBD0895882319F08230F1F40FC005
:1002F000662319F06130C9F405C05093670040933C
:100300006600089550936900409368000895623034
:1003100019F0633051F405C05093670040936600B4
:10032000089550936900409368000895813049F022
:10033000813018F0823039F402C062BF089564BD84
:1003400008957DBD6CBD0895813049F0813018F06D
:10035000823039F402C06CBF089563BD08957BBD3F
:100360006ABD0895882319F08230C1F40BC066235A
:1003700019F0613099F403C089B782600AC089B767
:10038000816007C0623019F0633041F404C089B75E
:10039000806889BF089589B7806489BF08958823DC
:1003A000B1F4613051F0613028F0623049F06330CF
:1003B00071F40AC089B78D7F05C089B78E7F02C0EE
:1003C00089B78F7789BF089589B78F7B89BF0895D3
:1003D00077BD66BD08951F920F920FB60F9211243C
:1003E0002F933F934F935F936F937F938F939F933D
:1003F000AF93BF93EF93FF93E0916600F091670096
:10040000309721F0099588B7826088BFFF91EF91FE
:10041000BF91AF919F918F917F916F915F914F911C
:100420003F912F910F900FBE0F901F9018951F9224
:100430000F920FB60F9211242F933F934F935F9318
:100440006F937F938F939F93AF93BF93EF93FF939C
:10045000E0916800F0916900309721F0099588B724
:10046000816088BFFF91EF91BF91AF919F918F9174
:100470007F916F915F914F913F912F910F900FBEA0
:100480000F901F9018951F920F920FB60F92112484
:100490002F933F934F935F936F937F938F939F938C
:1004A000AF93BF93EF93FF93E0916600F0916700E5
:1004B000309721F0099588B7806888BFFF91EF9148
:1004C000BF91AF919F918F917F916F915F914F916C
:1004D0003F912F910F900FBE0F901F9018951F9274
:1004E0000F920FB60F9211242F933F934F935F9368
:1004F0006F937F938F939F93AF93BF93EF93FF93EC
:10050000E0916800F0916900309721F0099588B773
:10051000806488BFFF91EF91BF91AF919F918F91C0
:100520007F916F915F914F913F912F910F900FBEEF
:100530000F901F9018958FB780688FBF08958FB761
:100540008F778FBF0895843008F075C0683008F049
:1005500072C04130B1F5813099F0813030F0823095
:10056000D1F0833009F067C021C02AB381E090E068
:1005700002C0880F991F6A95E2F7282B2ABB0895BD
:1005800027B381E090E002C0880F991F6A95E2F7D7
:10059000282B27BB089524B381E090E002C0880F88
:1005A000991F6A95E2F7282B24BB089521B381E0B7
:1005B00090E002C0880F991F6A95E2F7282B21BBB3
:1005C00008954423C1F5813099F0813028F08230BC
:1005D000D9F0833081F524C02AB381E090E002C0D5
:1005E000880F991F6A95E2F7809582238ABB089548
:1005F00027B381E090E002C0880F991F6A95E2F767
:100600008095822387BB089524B381E090E002C0E7
:10061000880F991F6A95E2F78095822384BB08951D
:1006200021B381E090E002C0880F991F6A95E2F73C
:100630008095822381BB0895843008F075C06830AE
:1006400008F072C04130B1F5813099F0813030F05E
:100650008230D1F0833009F067C021C02BB381E034
:1006600090E002C0880F991F6A95E2F7282B2BBBF8
:10067000089528B381E090E002C0880F991F6A9521
:10068000E2F7282B28BB089525B381E090E002C053
:10069000880F991F6A95E2F7282B25BB089522B38E
:1006A00081E090E002C0880F991F6A95E2F7282B3D
:1006B00022BB08954423C1F5813099F0813028F0A0
:1006C0008230D9F0833081F524C02BB381E090E0F3
:1006D00002C0880F991F6A95E2F7809582238BBB31
:1006E000089528B381E090E002C0880F991F6A95B1
:1006F000E2F78095822388BB089525B381E090E0DE
:1007000002C0880F991F6A95E2F78095822385BB06
:10071000089522B381E090E002C0880F991F6A9586
:10072000E2F78095822382BB08958430D8F4683044
:10073000C8F4813051F0813030F0823041F08330A4
:1007400041F080E0089589B305C086B303C083B348
:1007500001C080B390E002C0959587956A95E2F755
:10076000817008958FEF08950F931F93182F062F10
:100770000E94950340E0882309F441E0812F602F17
:100780000E941C031F910F910895843080F48130E2
:1007900049F0813028F0823039F0833041F406C0CE
:1007A0006ABB089567BB089564BB089561BB089553
:1007B000843080F4813049F0813028F0823039F083
:1007C000833041F406C06BBB089568BB089565BBD8
:1007D000089562BB0895843088F4813049F08130F7
:1007E00028F0823039F0833049F406C089B3089587
:1007F00086B3089583B3089580B3089580E0089583
:100800008A3021F481E080936A0008958B3021F4CE
:1008100081E080936B0008958C3021F481E0809317
:100820006C000895E0917700F0E0E359FF4F80837A
:100830008091770090E001966AE070E00E94800568
:100840008093770008951F93DF93CF930F92CDB7D6
:10085000DEB7182F19820E94B90080E560E00E947F
:10086000C100812F0E94CF000E94B90080E561E0A5
:100870000E94C100CE01019660E00E94D8000E9453
:10088000EA0089810F90CF91DF911F9108950F9316
:100890001F93082F162F0E94B90080E560E00E9488
:1008A000C100812F0E94CF00802F0E94CF000E94A4
:1008B000EA001F910F910895EF92FF920F931F93FB
:1008C000CF93DF9383E062E041E00E94A30283E0E4
:1008D00065E041E00E94A3020E943E0080E094E0B7
:1008E0000E947C000E94EF0081E064EC79E00E94AD
:1008F000E80181E00E944A010E94AB000E949B0235
:1009000080E29EE40197F1F7C0E0D0E000E41CE94A
:1009100081E0BE010E944704C8010197F1F72196CA
:10092000CA30D105A9F7C0E0D0E0CE010E9423046F
:100930000E944A002196CA30D105B9F7C8ECD0E030
:1009400080916A00813009F043C080916C00882357
:1009500009F03EC010926A0083E062E041E00E942C
:100960001C0380ED97E0FE013197F1F70197D9F76D
:1009700080ED97E0FE013197F1F70197D9F780ED0F
:1009800097E0FE013197F1F70197D9F780ED97E0F5
:10099000FE013197F1F70197D9F780ED97E0FE015D
:1009A0003197F1F70197D9F780ED97E0FE01319784
:1009B000F1F70197D9F780ED97E0FE013197F1F754
:1009C0000197D9F783E062E040E00E941C03B8CFB2
:1009D00080916B00813009F06EC010926B006AEB61
:1009E00070E00E94A40180ED97E0FE013197F1F7DD
:1009F0000197D9F780ED97E0FE013197F1F7019764
:100A0000D9F780ED97E0FE013197F1F70197D9F71B
:100A100080ED97E0FE013197F1F70197D9F780ED6E
:100A200097E0FE013197F1F70197D9F780ED97E054
:100A3000FE013197F1F70197D9F780ED97E0FE01BC
:100A40003197F1F70197D9F780ED97E0FE013197E3
:100A5000F1F70197D9F780ED97E0FE013197F1F7B3
:100A60000197D9F780ED97E0FE013197F1F70197F3
:100A7000D9F780ED97E0FE013197F1F70197D9F7AB
:100A800080ED97E0FE013197F1F70197D9F780EDFE
:100A900097E0FE013197F1F70197D9F780ED97E0E4
:100AA000FE013197F1F70197D9F781E06CE770E02B
:100AB0000E94A40145CF80916C00813009F040CFA5
:100AC00080916D008823E1F3C0E0D0E080E4E82E5F
:100AD0008CE9F82E8E0103591F4FF8018081BE0169
:100AE0000E944704C7010197F1F7F801108221968F
:100AF000CA30D10579F71092770010926C0013CFAD
:100B000097FB092E07260AD077FD04D00CD006D01B
:100B100000201AF4709561957F4F0895F6F790952F
:100B200081959F4F0895AA1BBB1B51E107C0AA1FC7
:100B3000BB1FA617B70710F0A61BB70B881F991F7E
:100B40005A95A9F780959095BC01CD010895F89428
:020B5000FFCFD5
:00000001FF
